:020000040800F2
:100000000000022059260008D91E0008DF1E000843
:10001000E51E0008EB1E0008F11E000800000000AD
:10002000000000000000000000000000F71E0008B3
:10003000051F000800000000131F0008211F000812
:10004000A9260008A9260008A9260008A926000854
:10005000A9260008A9260008A9260008A926000844
:10006000A9260008A9260008A92600082D1F0008B7
:10007000A9260008A9260008A9260008A926000824
:10008000A9260008411F0008A9260008000000005A
:10009000000000000000000000000000A926000889
:1000A000A9260008A9260008A9260008A9260008F4
:1000B000551F0008691F0008A92600087D1F0008B9
:1000C000911F0008A9260008A9260008A9260008F3
:1000D000A9260008A51F0008B91F0008000000009D
:1000E000A9260008A9260008A9260008000000008B
:1000F000000000000000000000000000A926000829
:1001000000000000A9260008A9260008A92600086A
:1001100000000000000000000000000000000000DF
:10012000CD1F0008A9260008E11F0008A926000825
:10013000A9260008000000000000000000000000E8
:10014000000000000000000000000000A9260008D8
:10015000A9260008A9260008F51F0008A9260008FE
:10016000A9260008A92600080000000000000000E1
:10017000000000000000000000000000000000007F
:1001800000000000A9260008000000000000000098
:08019000A9260008A9260008B9
:1001A00010B5054C237833B9044B13B10448AFF3B1
:1001B00000800123237010BD940000200000000087
:1001C000389E000808B5034B1BB103490348AFF341
:1001D000008008BD0000000098000020389E000844
:1001E00001F0FF01102A2BDB10F0070F08D010F8E8
:1001F000013B013A8B422DD010F0070F42B3F6D1EC
:10020000F0B441EA012141EA014122F007047FF004
:1002100000070023F0E80256083C85EA010586EA5B
:10022000010685FA47F5A3FA87F586FA47F6A5FA97
:1002300087F68EB9EED1F0BC01F0FF0102F00702A3
:1002400032B110F8013B013A83EA010313B1F8D14E
:100250000020704701387047002D06BF354603382F
:10026000073815F0010F07D1013015F4807F02BF68
:10027000013015F4C03F0130F0BC0138704700BFB9
:1002800081F0004102E000BF83F0004330B54FEA47
:1002900041044FEA430594EA050F08BF90EA020FB4
:1002A0001FBF54EA000C55EA020C7FEA645C7FEA47
:1002B000655C00F0E2804FEA5454D4EB5555B8BF6A
:1002C0006D420CDD2C4480EA020281EA030382EADB
:1002D000000083EA010180EA020281EA0303362D6D
:1002E00088BF30BD11F0004F4FEA01314FF4801C40
:1002F0004CEA113102D0404261EB410113F0004F52
:100300004FEA03334CEA133302D0524263EB430308
:1003100094EA050F00F0A780A4F10104D5F1200EA6
:100320000DDB02FA0EFC22FA05F2801841F1000101
:1003300003FA0EF2801843FA05F359410EE0A5F1D5
:1003400020050EF1200E012A03FA0EFC28BF4CF006
:10035000020C43FA05F3C01851EBE37101F00045BC
:1003600007D54FF0000EDCF1000C7EEB00006EEBC9
:100370000101B1F5801F1BD3B1F5001F0CD3490853
:100380005FEA30004FEA3C0C04F101044FEA4452AA
:1003900012F5800F80F09A80BCF1004F08BF5FEA31
:1003A000500C50F1000041EB045141EA050130BD11
:1003B0005FEA4C0C404141EB0101013C28BFB1F523
:1003C000801FE9D291F0000F04BF01460020B1FA6E
:1003D00081F308BF2033A3F10B03B3F120020CDA41
:1003E0000C3208DD02F1140CC2F10C0201FA0CF01F
:1003F00021FA02F10CE002F11402D8BFC2F1200C84
:1004000001FA02F120FA0CFCDCBF41EA0C01904039
:10041000E41AA2BF01EB0451294330BD6FEA040482
:100420001F3C1CDA0C340EDC04F11404C4F120026D
:1004300020FA04F001FA02F340EA030021FA04F37F
:1004400045EA030130BDC4F10C04C4F1200220FAD6
:1004500002F001FA04F340EA0300294630BD21FA14
:1004600004F0294630BD94F0000F83F4801306BFDA
:1004700081F480110134013D4EE77FEA645C18BFCE
:100480007FEA655C29D094EA050F08BF90EA020F65
:1004900005D054EA000C04BF1946104630BD91EA5D
:1004A000030F1EBF0021002030BD5FEA545C05D160
:1004B0004000494128BF41F0004130BD14F580049F
:1004C0003CBF01F5801130BD01F0004545F0FE4113
:1004D00041F470014FF0000030BD7FEA645C1ABF48
:1004E000194610467FEA655C1CBF0B46024650EA7F
:1004F000013406BF52EA033591EA030F41F40021AB
:1005000030BD00BF90F0000F04BF0021704730B530
:100510004FF4806404F132044FF000054FF0000105
:1005200050E700BF90F0000F04BF0021704730B5C6
:100530004FF4806404F1320410F0004548BF40429B
:100540004FF000013EE700BF42004FEAE2014FEAF0
:1005500031014FEA02701FBF12F07F4393F07F4FCB
:1005600081F06051704732F07F4208BF704793F0CE
:100570007F4F04BF41F40021704730B54FF46074E1
:1005800001F0004521F000411CE700BF50EA0102E4
:1005900008BF704730B54FF000050AE050EA01028D
:1005A00008BF704730B511F0004502D5404261EBFD
:1005B00041014FF4806404F132045FEA915C3FF43E
:1005C000D8AE4FF003025FEADC0C18BF03325FEADB
:1005D000DC0C18BF033202EBDC02C2F1200300FA8C
:1005E00003FC20FA02F001FA03FE40EA0E0021FAB1
:1005F00002F11444BDE600BF70B54FF0FF0C4CF49F
:10060000E06C1CEA11541DBF1CEA135594EA0C0F50
:1006100095EA0C0F00F0DEF82C4481EA030621EA8B
:100620004C5123EA4C5350EA013518BF52EA0335C6
:1006300041F4801143F4801338D0A0FB02CE4FF078
:100640000005E1FB02E506F00042E0FB03E54FF0A8
:100650000006E1FB03569CF0000F18BF4EF0010EA0
:10066000A4F1FF04B6F5007F64F5407404D25FEA9C
:100670004E0E6D4146EB060642EAC62141EA55514F
:100680004FEAC52040EA5E504FEACE2EB4F1FD0C91
:1006900088BFBCF5E06F1ED8BEF1004F08BF5FEA0F
:1006A000500E50F1000041EB045170BD06F00046C1
:1006B00046EA010140EA020081EA0301B4EB5C046E
:1006C000C2BFD4EB0C0541EA045170BD41F4801166
:1006D0004FF0000E013C00F3AB8014F1360FDEBF8B
:1006E000002001F0004170BDC4F10004203C35DA67
:1006F0000C341BDC04F11404C4F1200500FA05F3EA
:1007000020FA04F001FA05F240EA020001F000428A
:1007100021F0004110EBD37021FA04F642EB060100
:100720005EEA430E08BF20EAD37070BDC4F10C042A
:10073000C4F1200500FA04F320FA05F001FA04F2EE
:1007400040EA020001F0004110EBD37041F10001DA
:100750005EEA430E08BF20EAD37070BDC4F12005E5
:1007600000FA05F24EEA020E20FA04F301FA05F24D
:1007700043EA020321FA04F001F0004121FA04F2F5
:1007800020EA020000EBD3705EEA430E08BF20EAC5
:10079000D37070BD94F0000F0FD101F000464000FF
:1007A00041EB010111F4801F08BF013CF7D041EA81
:1007B000060195F0000F18BF704703F00046520085
:1007C00043EB030313F4801F08BF013DF7D043EA56
:1007D0000603704794EA0C0F0CEA135518BF95EA0C
:1007E0000C0F0CD050EA410618BF52EA4306D1D193
:1007F00081EA030101F000414FF0000070BD50EAB2
:10080000410606BF1046194652EA430619D094EA3B
:100810000C0F02D150EA013613D195EA0C0F05D125
:1008200052EA03361CBF104619460AD181EA030179
:1008300001F0004141F0FE4141F470014FF0000031
:1008400070BD41F0FE4141F4780170BD70B54FF0CC
:10085000FF0C4CF4E06C1CEA11541DBF1CEA13554C
:1008600094EA0C0F95EA0C0F00F0A7F8A4EB05042E
:1008700081EA030E52EA03354FEA013100F0888025
:100880004FEA03334FF0805545EA131343EA1263EE
:100890004FEA022245EA111545EA10654FEA0026A3
:1008A0000EF000419D4208BF964244F1FD0404F55C
:1008B000407402D25B084FEA3202B61A65EB0305B8
:1008C0005B084FEA32024FF480104FF4002CB6EB75
:1008D000020E75EB030E22BFB61A754640EA0C00F5
:1008E0005B084FEA3202B6EB020E75EB030E22BF35
:1008F000B61A754640EA5C005B084FEA3202B6EB76
:10090000020E75EB030E22BFB61A754640EA9C0034
:100910005B084FEA3202B6EB020E75EB030E22BF04
:10092000B61A754640EADC0055EA060E18D04FEAC2
:10093000051545EA16754FEA06164FEAC30343EA62
:1009400052734FEAC2025FEA1C1CC0D111F4801F2F
:100950000BD141EA00014FF000004FF0004CB6E728
:1009600011F4801F04BF01430020B4F1FD0C88BFC7
:10097000BCF5E06F3FF6AFAEB5EB030C04BFB6EBD2
:10098000020C5FEA500C50F1000041EB045170BDC5
:100990000EF0004E4EEA113114EB5C04C2BFD4EBF2
:1009A0000C0541EA045170BD41F480114FF0000E76
:1009B000013C90E645EA060E8DE60CEA135594EAF2
:1009C0000C0F08BF95EA0C0F3FF43BAF94EA0C0FF5
:1009D0000AD150EA01347FF434AF95EA0C0F7FF46A
:1009E00025AF104619462CE795EA0C0F06D152EABE
:1009F00003353FF4FDAE1046194622E750EA4106A2
:100A000018BF52EA43067FF4C5AE50EA41047FF4B2
:100A10000DAF52EA43057FF4EBAE12E74FF0FF3C17
:100A200006E000BF4FF0010C02E000BF4FF0010CE8
:100A30004DF804CD4FEA410C7FEA6C5C4FEA430C61
:100A400018BF7FEA6C5C1BD001B050EA410C0CBFB0
:100A500052EA430C91EA030F02BF90EA020F002012
:100A6000704710F1000F91EA030F58BF994208BF79
:100A700090422CBFD8176FEAE37040F00100704736
:100A80004FEA410C7FEA6C5C02D150EA013C07D18D
:100A90004FEA430C7FEA6C5CD6D152EA033CD3D0D8
:100AA0005DF8040B704700BF8446104662468C46D2
:100AB0001946634600E000BF01B5FFF7B7FF002805
:100AC00048BF10F1000F01BD4DF808EDFFF7F4FF2E
:100AD0000CBF012000205DF808FB00BF4DF808EDB9
:100AE000FFF7EAFF34BF012000205DF808FB00BFDC
:100AF0004DF808EDFFF7E0FF94BF012000205DF8FE
:100B000008FB00BF4DF808EDFFF7CEFF94BF0120B2
:100B100000205DF808FB00BF4DF808EDFFF7C4FFAB
:100B200034BF012000205DF808FB00BF4FEA410CF4
:100B30007FEA6C5C02D150EA013C0AD14FEA430CD7
:100B40007FEA6C5C02D152EA033C02D14FF0000014
:100B500070474FF0010070474FEA4102B2F1E043A5
:100B600024BFB3F5001CDCF1FE5C0DD901F0004C94
:100B70004FEAC0024CEA5070B2F1004F40EB8300E4
:100B800008BF20F00100704711F0804F21D113F110
:100B90003872BCBF01F00040704741F480114FEA49
:100BA0005252C2F11802C2F1200C10FA0CF320FAD2
:100BB00002F018BF40F001004FEAC1234FEAD323EF
:100BC00003FA0CFC40EA0C0023FA02F34FEA430359
:100BD000CCE77FEA625307D150EA01331EBF4FF0E2
:100BE000FE4040F44000704701F0004040F0FE40FD
:100BF00040F40000704700BF53B94AB9002908BF4C
:100C000000281CBF4FF0FF314FF0FF3000F074B9E7
:100C1000ADF1080C6DE904CE00F006F8DDF804E053
:100C2000DDE9022304B070472DE9F047089D044632
:100C30008E46002B4DD18A42944669D9B2FA82F28F
:100C400052B101FA02F3C2F1200120FA01F10CFACB
:100C500002FC41EA030E94404FEA1C48210CBEFB03
:100C6000F8F61FFA8CF708FB16E341EA034306FB8C
:100C700007F199420AD91CEB030306F1FF3080F01B
:100C80001F81994240F21C81023E63445B1AA4B268
:100C9000B3FBF8F008FB103344EA034400FB07F70A
:100CA000A7420AD91CEB040400F1FF3380F00A814B
:100CB000A74240F207816444023840EA0640E41B40
:100CC00000261DB1D4400023C5E900433146BDE8EC
:100CD000F0878B4209D9002D00F0EF800026C5E98E
:100CE000000130463146BDE8F087B3FA83F6002EA6
:100CF0004AD18B4202D3824200F2F980841A61EB1E
:100D0000030301209E46002DE0D0C5E9004EDDE73B
:100D100002B9FFDEB2FA82F2002A40F09280A1EB23
:100D20000C014FEA1C471FFA8CFE0126200CB1FB78
:100D3000F7F307FB131140EA01410EFB03F0884271
:100D400008D91CEB010103F1FF3802D2884200F2FE
:100D5000CB804346091AA4B2B1FBF7F007FB101190
:100D600044EA01440EFB00FEA64508D91CEB04042E
:100D700000F1FF3102D2A64500F2BB800846A4EB89
:100D80000E0440EA03409CE7C6F12007B34022FA74
:100D900007FC4CEA030C20FA07F401FA06F31C43A3
:100DA000F9404FEA1C4900FA06F3B1FBF9F8200CB0
:100DB0001FFA8CFE09FB181140EA014108FB0EF0F6
:100DC000884202FA06F20BD91CEB010108F1FF3A46
:100DD00080F08880884240F28580A8F10208614452
:100DE000091AA4B2B1FBF9F009FB101144EA014160
:100DF00000FB0EFE8E4508D91CEB010100F1FF340B
:100E00006CD28E456AD90238614440EA0840A0FBA2
:100E10000294A1EB0E01A142C846A64656D353D078
:100E20005DB1B3EB080261EB0E0101FA07F722FA9C
:100E300006F3F1401F43C5E9007100263146BDE8C5
:100E4000F087C2F12003D8400CFA02FC21FA03F328
:100E5000914001434FEA1C471FFA8CFEB3FBF7F0A9
:100E600007FB10360B0C43EA064300FB0EF69E42CE
:100E700004FA02F408D91CEB030300F1FF382FD267
:100E80009E422DD9023863449B1B89B2B3FBF7F60F
:100E900007FB163341EA034106FB0EF38B4208D9E8
:100EA0001CEB010106F1FF3816D28B4214D9023E29
:100EB0006144C91A46EA004638E72E46284605E747
:100EC0000646E3E61846F8E64B45A9D2B9EB020818
:100ED00064EB0C0E0138A3E74646EAE7204694E7A8
:100EE0004046D1E7D0467BE7023B614432E73046DB
:100EF00009E76444023842E7704700BF80B586B016
:100F000004AF00F045FA6423029301230193FB1D13
:100F1000009301237522D0211E4803F079F9FB7953
:100F2000682B33D10023BB71642302930123019307
:100F3000BB1D009301236B22D021164803F06EF8ED
:100F40000723BB716423029301230193BB1D00930C
:100F500001231922D0210F4803F060F86423029383
:100F6000012301930C4B009301231C22D02109483B
:100F700003F054F86423029301230193074B009379
:100F800001231B22D021034803F048F800BF083793
:100F9000BD4680BD080300200001002001010020A3
:100FA00080B588B004AF78600A23029306230193CA
:100FB00007F10803009301233B22D021274803F0C7
:100FC00027F93B7A1B021AB27B7A1BB213431AB27F
:100FD0007B681A80BB7A1B021AB2FB7A1BB21343DE
:100FE0001AB27B685A803B7B1B021AB27B7B1BB216
:100FF00013431AB27B689A807B681B881BB207EE8A
:10100000903AF8EEE76A164B93ED007AC6EE877ACF
:101010007B68C3ED037A7B685B881BB207EE903A6E
:10102000F8EEE76A0E4B93ED007AC6EE877A7B689E
:10103000C3ED047A7B689B881BB207EE903AF8EE0A
:10104000E76A074B93ED007AC6EE877A7B68C3EDBB
:10105000057A00BF1037BD4680BD00BF08030020E1
:10106000FC00002080B588B004AF78600A230293AA
:101070000623019307F10803009301234322D021A3
:101080002D4803F0C5F83B7A1B021AB27B7A1BB2DB
:1010900013431AB27B68DA80BB7A1B021AB2FB7A5E
:1010A0001BB213431AB27B681A813B7B1B021AB234
:1010B0007B7B1BB213431AB27B685A817B68DB8847
:1010C0001BB207EE903AF8EEE76A1C4B93ED007AFC
:1010D000C6EE877A9FED1A7A77EE877A7B68C3ED42
:1010E000097A7B681B891BB207EE903AF8EEE76A33
:1010F000124B93ED007AC6EE877A9FED127A77EE67
:10110000877A7B68C3ED0A7A7B685B891BB207EE3E
:10111000903AF8EEE76A094B93ED007AC6EE877ACB
:101120009FED097A77EE877A7B68C3ED0B7A00BF73
:101130001037BD4680BD00BF08030020F800002026
:101140009A99A940CDCC0C40CDCC8C3F000000003A
:10115000B0B582B000AF78607B681B691846FFF7B6
:10116000F3F904460D467B6893ED037A7B68D3ED73
:10117000037A27EE277A7B68D3ED056A7B68D3ED87
:10118000057A66EEA77A77EE277A17EE900AFFF7D0
:10119000DBF902460B4643EC102B08F06EFD53ECD6
:1011A000102B20462946FFF751FB02460B4643EC25
:1011B000172BB0EE470AF0EE670A08F0B5FB51ECCA
:1011C000100B4FF00002384BFFF716FA02460B46A1
:1011D0001046194632A3D3E90023FFF737FB024636
:1011E0000B4610461946FFF7B7FC02467B68DA63E8
:1011F0007B68D3ED037AF1EE677A17EE903A1846E2
:10120000FFF7A2F904460D467B6893ED047A7B68EC
:10121000D3ED047A27EE277A7B68D3ED056A7B68E5
:10122000D3ED057A66EEA77A77EE277A17EE900A65
:10123000FFF78AF902460B4643EC102B08F01DFD20
:1012400053EC102B20462946FFF700FB02460B46C5
:1012500043EC172BB0EE470AF0EE670A08F064FB88
:1012600051EC100B4FF000020F4BFFF7C5F902468F
:101270000B46104619460AA3D3E90023FFF7E6FA06
:1012800002460B4610461946FFF766FC02467B688D
:101290001A6400BF0837BD46B0BD00BFAFF3008081
:1012A000000000E0D02209400080664080B582B096
:1012B00000AF786087ED000A7B68D3ED096AD7ED4F
:1012C000007A86EEA77A7B68D3ED067A77EE277AE6
:1012D0007B68C3ED067A7B68D3ED0A6AD7ED007AA6
:1012E00086EEA77A7B68D3ED077A77EE277A7B685C
:1012F000C3ED077A7B68D3ED0B6AD7ED007A86EEF3
:10130000A77A7B68D3ED087A77EE277A7B68C3EDFE
:10131000087A7B689B691846FFF716F94FF00002C0
:101320001A4BFFF769F902460B4610461946FFF7BC
:1013300013FC02467B681A637B68DB691846FFF77B
:1013400003F94FF00002114BFFF756F902460B4626
:1013500010461946FFF700FC02467B685A637B681B
:101360001B6A1846FFF7F0F84FF00002074BFFF733
:1013700043F902460B4610461946FFF7EDFB0246BD
:101380007B689A6300BF0837BD4680BD00005940A6
:1013900080B400AF084B4FF08B421A60074B10220D
:1013A0001A70074B074A1A60074B00221A7000BFD9
:1013B000BD465DF8047B7047FC0000200001002062
:1013C000F8000020000003430101002080B584B034
:1013D00000AF3B4600221A605A609A60DA603D4BCB
:1013E0003D4A1A603B4B4FF440325A60394B002261
:1013F0009A60384B01221A61364B01221A76354B1E
:10140000002283F82020334B0022DA62314B334A2A
:101410009A62304B0022DA602E4B0522DA612D4BA6
:10142000012283F830202B4B01225A61294801F018
:10143000D3F90346002B01D000F0CEFC00233B6023
:1014400001237B600023BB603B461946214801F025
:1014500015FB0346002B01D000F0BEFC01233B60CE
:1014600002237B603B4619461A4801F007FB0346FE
:10147000002B01D000F0B0FC08233B6003237B600D
:101480003B461946134801F0F9FA0346002B01D0F8
:1014900000F0A2FC09233B6004237B603B46194615
:1014A0000C4801F0EBFA0346002B01D000F094FC4D
:1014B0000A233B6005237B603B461946054801F043
:1014C000DDFA0346002B01D000F086FC00BF103788
:1014D000BD4680BD90010020002001400100000FAA
:1014E00080B58CB000AF786007F11C0300221A6051
:1014F0005A609A60DA601A617B681B684E4A9342B0
:1015000040F096800023BB614C4B5B6C4B4A43F42C
:1015100080735364494B5B6C03F48073BB61BB699C
:1015200000237B61454B1B6B444A43F00403136368
:10153000424B1B6B03F004037B617B6900233B611F
:101540003E4B1B6B3D4A43F0010313633B4B1B6B4C
:1015500003F001033B613B690023FB60374B1B6BCE
:10156000364A43F002031363344B1B6B03F0020350
:10157000FB60FB680123FB6103233B6200237B626A
:1015800007F11C0319462E4802F066FA0323FB619B
:1015900003233B6200237B6207F11C0319462948A1
:1015A00002F05AFA0323FB6103233B6200237B62B0
:1015B00007F11C031946244802F04EFA234B244A33
:1015C0001A60224B00225A60204B00229A601F4B67
:1015D0000022DA601D4B4FF480621A611B4B4FF4FE
:1015E00000625A61194B4FF400529A61174B4FF445
:1015F0008072DA61154B4FF400321A62134B0422E9
:101600005A62124B03229A62104B0022DA620F4B8D
:1016100000221A630D4801F00FFE0346002B01D093
:1016200000F0DAFB7B68094A9A63084A7B68936397
:1016300000BF3037BD4680BD002001400038024069
:10164000000802400000024000040240D8010020CF
:101650001064024080B582B000AF78607B681B7870
:1016600083F00103DBB2002B0FD001224FF4806125
:10167000114802F075FB322001F08AF800224FF485
:1016800080710E4802F06CFB11E000224FF4806183
:10169000094802F065FB01224FF48071074802F00F
:1016A0005FFB00224FF48071044802F059FB00BF39
:1016B0000837BD4680BD00BF000402400000024064
:1016C00080B582B002AF64220021234807F09EFC5F
:1016D00064220021214807F099FC214B0093214B03
:1016E000214A22491D4807F099FC1C4A20491A4802
:1016F00007F094FC184B1B78DBB2002B29D072B694
:1017000000BF642214491B4806F0B4FA62B600BF59
:1017100000BF194B1B6803F04003002BF9D072B6D1
:1017200000BF64220C49154806F0A4FA62B600BF57
:1017300000BF134B1B6803F04003002BF9D0642259
:101740000021054807F062FC64220E49094806F0B2
:101750000FFB00BFBD4680BD9C0200203802002068
:10176000000000201C000020040000205C9E0008F7
:10177000589E00088C05002000440040D005002041
:10178000001001400401002080B586B002AF72B69F
:1017900000BF642200214B4807F038FC642200217E
:1017A000494807F033FC494B0193494B0093494B9F
:1017B000494A4A49444807F031FC434A48494148AC
:1017C00007F02CFC62B600BF3E4B1B78DBB2002B4F
:1017D00073D064223B49434806F04CFA00BF424BA9
:1017E0001B6803F04003002BF9D03F4B1B683E4AB7
:1017F00023F040031360642232493C4806F03AFA71
:1018000000BF3B4B1B6803F04003002BF9D0364B65
:101810001B68354A23F040031360642200213548D9
:1018200007F0F4FB344BFB710023FB6072B600BF82
:10183000642230492B4806F09BFA62B600BF2D4B5C
:10184000FB600023BB600DE0BB68FA6813441B78A3
:10185000002B04D0BB68FA681344FB6005E0BB684A
:101860000133BB60BB68632BEEDDFB791946F8687A
:1018700007F0F4FB0346002B0BD0642200211D4827
:1018800007F0C4FB00BF642200210E4807F0BEFB36
:1018900013E064220B49134806F0ECF9642209496D
:1018A000124806F0E7F964220021124807F0AEFB67
:1018B0004FF47A7000F06CFFB8E700BF1037BD46F8
:1018C00080BD00BF9C0200203802002000000020E4
:1018D000080000201C00002004000020689E000872
:1018E000589E00088C05002000440040D0050020D0
:1018F0000010014004010020749E000880B500AF74
:10190000064B074A1A60054801F079FC0346002B94
:1019100001D000F061FA00BF80BD00BF00030020CD
:101920000030024080B485B000AF78607B681B68EF
:101930000B4A93420DD10023FB600A4B1B6B094AF3
:1019400043F480531363074B1B6B03F48053FB601A
:10195000FB6800BF1437BD465DF8047B704700BFCD
:10196000003002400038024080B582B000AF002352
:101970007B60234B1B6B224A43F480031363204B91
:101980001B6B03F480037B607B6800233B601C4B74
:101990001B6B1B4A43F400131363194B1B6B03F4BB
:1019A00000133B603B68002202210B2001F0F1FB99
:1019B0000B2001F00AFC00220021112001F0E9FBBC
:1019C000112001F002FC00220221382001F0E1FB8D
:1019D000382001F0FAFB002200213A2001F0D9FB67
:1019E0003A2001F0F2FB00220121462001F0D1FB58
:1019F000462001F0EAFB00BF0837BD4680BD00BFAE
:101A00000038024080B58AB000AF07F1140300220D
:101A10001A605A609A60DA601A6100233B61324BA7
:101A20001B6B314A43F0800313632F4B1B6B03F096
:101A300080033B613B690023FB602B4B1B6B2A4AF5
:101A400043F004031363284B1B6B03F00403FB6098
:101A5000FB680023BB60244B1B6B234A43F001034C
:101A60001363214B1B6B03F00103BB60BB680023B6
:101A70007B601D4B1B6B1C4A43F0020313631A4B24
:101A80001B6B03F002037B607B6801224FF48061D3
:101A9000164802F065F900224FF48071144802F0F4
:101AA0005FF94FF480637B610123BB610223FB611B
:101AB00000233B6207F1140319460C4801F0CCFFE8
:101AC0004FF480737B610123BB610023FB61002322
:101AD0003B6207F114031946054801F0BDFF00BF42
:101AE0002837BD4680BD00BF0038024000040240D8
:101AF0000000024080B500AF124B134A1A60114B30
:101B0000124A5A600F4B00229A600E4B0022DA6094
:101B10000C4B4FF480421A610A4B00225A61094B68
:101B200000229A61074B0022DA61064B00221A62FA
:101B3000044802F02FF90346002B01D000F04CF9C5
:101B400000BF80BD0803002000540040A0860100B3
:101B500080B58AB000AF786007F1140300221A60E4
:101B60005A609A60DA601A617B681B68384A93424F
:101B70006AD100233B61374B1B6B364A43F00203AB
:101B80001363344B1B6B03F002033B613B69C023BF
:101B90007B611223BB610023FB6103233B620423AF
:101BA0007B6207F1140319462B4801F055FF00230F
:101BB000FB60284B1B6C274A43F400131364254B2E
:101BC0001B6C03F40013FB60FB68244B244A1A606F
:101BD000224B4FF000725A60204B00229A601F4B3C
:101BE0000022DA601D4B4FF480621A611B4B002209
:101BF0005A611A4B00229A61184B0022DA61174B86
:101C00004FF400321A62154B00225A62134801F059
:101C100013FB0346002B01D000F0DEF87B680F4A6F
:101C20009A630E4A7B689363002201211F2001F012
:101C3000B0FA1F2001F0C9FA00220121202001F092
:101C4000A8FA202001F0C1FA00BF2837BD4680BDA8
:101C50000054004000380240000402405C030020B1
:101C60001060024080B500AF00F020FD00F048F8A1
:101C7000FFF7C8FEFFF778FEFFF7A8FB00F0B2F809
:101C800000F0A2FBFFF736FF00F006FAFFF736FE82
:101C900000F070FB00F04CFA00F092F81148FFF7EA
:101CA000D9FC00F04BFBFFF729F90F4805F09EFB2C
:101CB0000E4805F09BFB05220D490E4800F0D0FDB3
:101CC00064220D490D4806F053F8FFF7F9FC4FF474
:101CD0007A7000F05DFDFFF757FD4FF47A7000F069
:101CE00057FDF2E76801002024040020DC030020F7
:101CF0006C01002090010020040100208C050020D0
:101D000080B594B000AF07F12003302200211846BF
:101D100007F07CF907F10C0300221A605A609A6000
:101D2000DA601A610023BB60234B1B6C224A43F02C
:101D300080531364204B1B6C03F08053BB60BB6863
:101D400000237B601D4B1B681C4A43F44043136017
:101D50001A4B1B6803F440437B607B680A233B6299
:101D60000123FB6210233B6301237B630023BB63DE
:101D700007F12003184604F0A7FC0346002B01D00E
:101D800000F02AF80F23FB6000233B6100237B61F6
:101D90000023BB610023FB6107F10C0300211846FF
:101DA00004F00AFF0346002B01D000F015F800BF35
:101DB0005037BD4680BD00BF003802400070004073
:101DC00080B500AF00220221262001F0E2F9262092
:101DD00001F0FBF900BF80BD80B400AF72B600BF58
:101DE000FEE7000080B500AF0F4B104A1A600E4BA3
:101DF00000225A600C4B7F229A600B4BFF22DA6064
:101E0000094B00221A61084B00225A61064B00223E
:101E10009A61054805F0A0F90346002B01D0FFF7B1
:101E2000DBFF00BF80BD00BFBC03002000280040D6
:101E300080B588B000AF786007F1080300221A600F
:101E40005A609A60DA601A615A617B681B680C4AB2
:101E5000934211D10223BB604FF40073BB6107F1C1
:101E60000803184605F088F80346002B01D0FFF759
:101E7000B3FF044B01221A6000BF2037BD4680BD6E
:101E8000002800403C0E474280B483B000AF0023DE
:101E90007B60104B5B6C0F4A43F4804353640D4BE3
:101EA0005B6C03F480437B607B6800233B60094BE1
:101EB0001B6C084A43F080531364064B1B6C03F001
:101EC00080533B603B6800BF0C37BD465DF8047B28
:101ED000704700BF0038024080B400AFFEE780B416
:101EE00000AFFEE780B400AFFEE780B400AFFEE7CE
:101EF00080B400AFFEE780B400AF00BFBD465DF820
:101F0000047B704780B400AF00BFBD465DF8047B22
:101F1000704780B400AF00BFBD465DF8047B7047DA
:101F200080B500AF00F014FC00BF80BD80B500AFED
:101F3000024801F019FB00BF80BD00BF5C03002018
:101F400080B500AF024801F00FFB00BF80BD00BFAD
:101F50002C05002080B500AF024805F0A9FA00BFAB
:101F600080BD00BF2404002080B500AF024805F00A
:101F70009FFA00BF80BD00BFDC03002080B500AF2A
:101F8000024802F06BFB00BF80BD00BF08030020C9
:101F900080B500AF024802F0D2FC00BF80BD00BF98
:101FA0000803002080B500AF024805F011FF00BF14
:101FB00080BD00BF8C05002080B500AF024805F051
:101FC00007FF00BF80BD00BFD005002080B500AF77
:101FD000024801F0C9FA00BF80BD00BFD80100204F
:101FE00080B500AF024801F0BFFA00BF80BD00BF5E
:101FF000CC04002080B500AF024801F0B5FA00BF64
:1020000080BD00BF6C04002080B586B000AF786052
:10201000144A154BD31A7B617B693B61134B1B68D8
:10202000002B02D1114B124A1A60104B1A687B68C0
:1020300013443A699A4207D206F0BEFF03460C22C7
:102040001A604FF0FF3309E0084B1B68FB60074B39
:102050001A687B681344054A1360FB6818461837F2
:10206000BD4680BD00000220000400007801002071
:102070001806002080B400AF064BD3F88830054A1C
:1020800043F47003C2F8883000BFBD465DF8047B9E
:10209000704700BF00ED00E080B586B000AF07F1EB
:1020A000080300221A605A609A60DA603B460022F8
:1020B0001A605A601D4B4FF080421A601B4B27225A
:1020C0005A601A4B00229A60184B42F20F72DA6083
:1020D000164B00221A61154B00229A61134805F035
:1020E00035F90346002B01D0FFF776FE4FF48053FD
:1020F000BB6007F1080319460C4805F0E1FA0346F6
:10210000002B01D0FFF768FE00233B6000237B60BB
:102110003B461946054805F0DDFC0346002B01D07F
:10212000FFF75AFE00BF1837BD4680BD24040020CB
:1021300080B586B000AF07F1080300221A605A602C
:102140009A60DA603B4600221A605A601D4B1E4AB4
:102150001A601C4B40F2E7325A601A4B00229A6018
:10216000184B41F63F72DA60164B00221A61154B8C
:1021700000229A61134805F0E9F80346002B01D0CC
:10218000FFF72AFE4FF48053BB6007F1080319469E
:102190000C4805F095FA0346002B01D0FFF71CFE12
:1021A00000233B6000237B603B461946054805F051
:1021B00091FC0346002B01D0FFF70EFE00BF18373D
:1021C000BD4680BDDC0300200004004080B584B023
:1021D00000AF78607B681B68B3F1804F16D1002395
:1021E000FB601A4B1B6C194A43F001031364174B35
:1021F0001B6C03F00103FB60FB68002200211C2024
:1022000000F0C7FF1C2000F0E0FF1AE07B681B68AD
:102210000F4A934215D10023BB600C4B1B6C0B4A39
:1022200043F002031364094B1B6C03F00203BB6011
:10223000BB68002200211D2000F0ABFF1D2000F034
:10224000C4FF00BF1037BD4680BD00BF003802404C
:102250000004004080B584B000AF78607B681B68E4
:10226000B3F1804F11D12E48FEF79AFE2C48FEF7AD
:10227000F9FE2C4BD3ED007AB0EE670A2848FFF741
:1022800015F82748FEF764FF46E07B681B68264A7E
:10229000934241D10023FB600023BB6018E0234A36
:1022A000BB6813441B78DBB2002B04D0BB681F4A09
:1022B0001344FB600FE0BB68632B06D11B4ABB686D
:1022C00013441B78DBB2002B25D0BB680133BB6005
:1022D000BB68632BE3DD72B600BFBB689BB2C3F182
:1022E00064039BB21A46F968114805F0C3FC62B654
:1022F00000BF00BF0F4B1B6803F04003002BF9D059
:1023000064220021094806F081FE642207490A4838
:1023100005F02EFD00E000BF1037BD4680BD00BFB8
:10232000B00000207C0100200004004004010020D7
:10233000D0050020004400408C05002080B500AF8F
:1023400004F0F2FD0146094B5B680133074AD2688D
:10235000013202FB03F3B1FBF3F307EE903AF8EE20
:10236000677A034BC3ED007A00BF80BD24040020D0
:102370007C01002080B500AF114B124A1A60104B4F
:102380004FF416425A600E4B00229A600C4B00220A
:10239000DA600B4B00221A61094B0C225A61084B80
:1023A00000229A61064B0022DA61054805F014FC10
:1023B0000346002B01D0FFF70FFD00BF80BD00BF1B
:1023C0008C0500200010014080B500AF114B124A6F
:1023D0001A60104B4FF416425A600E4B00229A605E
:1023E0000C4B0022DA600B4B00221A61094B0822C9
:1023F0005A61084B00229A61064B0022DA610548B7
:1024000005F0EAFB0346002B01D0FFF7E5FC00BF17
:1024100080BD00BFD00500200044004080B58CB0D6
:1024200000AF786007F11C0300221A605A609A60BE
:10243000DA601A617B681B687D4A934240F09480A1
:102440000023BB617B4B5B6C7A4A43F010035364FF
:10245000784B5B6C03F01003BB61BB6900237B61AD
:10246000744B1B6B734A43F001031363714B1B6B7B
:1024700003F001037B617B694FF4C063FB610223BE
:102480003B6200237B620323BB620723FB6207F1ED
:102490001C031946684801F0DFFA684B684A1A6065
:1024A000664B4FF000625A60644B40229A60634B67
:1024B0000022DA60614B4FF480621A615F4B0022A8
:1024C0005A615E4B00229A615C4B0022DA615B4BE1
:1024D0004FF480321A62594B00225A62574800F07A
:1024E000ABFE0346002B01D0FFF776FC7B68534A16
:1024F0005A63524A7B689363524B534A1A60514B5A
:102500004FF000625A604F4B00229A604D4B002200
:10251000DA604C4B4FF480621A614A4B00225A61D8
:10252000484B00229A61474B0022DA61454B4FF439
:1025300080321A62434B00225A62424800F07CFE0D
:102540000346002B01D0FFF747FC7B683D4A9A63A6
:102550003C4A7B68936300220221252000F019FE8B
:10256000252000F032FE5FE07B681B68374A93420B
:102570005AD100233B612F4B1B6C2E4A43F400338E
:1025800013642C4B1B6C03F400333B613B69002349
:10259000FB60284B1B6B274A43F001031363254B59
:1025A0001B6B03F00103FB60FB680C23FB61022340
:1025B0003B6200237B620323BB620723FB6207F1BC
:1025C0001C0319461C4801F047FA214B214A1A60A6
:1025D0001F4B4FF000625A601D4B40229A601C4B0B
:1025E0000022DA601A4B4FF480621A61184B002205
:1025F0005A61174B00229A61154B0022DA61144B85
:102600004FF480321A62124B00225A62104800F0D6
:1026100013FE0346002B01D0FFF7DEFB7B680C4A5C
:102620005A630B4A7B68936300BF3037BD4680BD59
:102630000010014000380240000002406C040020FD
:10264000B8640240CC0400204064024000440040D2
:102650002C050020A0600240DFF834D00D480E4960
:102660000E4A002302E0D458C4500433C4188C42EC
:10267000F9D30B4A0B4C002301E013600432A24251
:10268000FBD3FFF7F7FC06F09DFCFFF7EBFA704772
:10269000000002200000002094000020289F000875
:1026A0009400002018060020FEE7000080B500AF6F
:1026B0000E4B1B680D4A43F4007313600B4B1B68F1
:1026C0000A4A43F480631360084B1B68074A43F4CB
:1026D00080731360032000F051FD002000F008F823
:1026E000FFF7D2FB0023184680BD00BF003C02402C
:1026F00080B582B000AF7860124B1A68124B1B781D
:1027000019464FF47A73B3FBF1F3B2FBF3F31846B7
:1027100000F069FD0346002B01D001230EE07B6829
:102720000F2B0AD8002279684FF0FF3000F031FDFE
:10273000064A7B681360002300E00123184608372F
:10274000BD4680BD240000202C0000202800002071
:1027500080B400AF064B1B781A46064B1B68134427
:10276000044A136000BFBD465DF8047B704700BF9C
:102770002C0000201406002080B400AF034B1B681F
:102780001846BD465DF8047B704700BF1406002064
:1027900080B584B000AF7860FFF7EEFFB8607B686B
:1027A000FB60FB68B3F1FF3F05D00A4B1B781A466C
:1027B000FB681344FB6000BFFFF7DEFF0246BB6807
:1027C000D31AFA689A42F7D800BF00BF1037BD4647
:1027D00080BD00BF2C00002080B584B000AF7860C1
:1027E0000023FB737B68002B01D1012333E07B685E
:1027F0001B6C002B09D17868FEF772FE7B68002203
:102800005A647B68002283F83C207B681B6C03F0D1
:102810001003002B18D17B681B6C23F4885323F022
:10282000020343F002027B681A64786800F058FAE9
:102830007B6800225A647B681B6C23F0030343F01F
:1028400001027B681A6401E00123FB737B680022AC
:1028500083F83C20FB7B18461037BD4680BD000046
:1028600080B586B000AFF860B9607A6000233B6144
:10287000FB6893F83C30012B01D10223CEE0FB68CA
:10288000012283F83C20FB681B689B6803F001036E
:10289000012B18D0FB681B689A68FB681B6842F024
:1028A00001029A605F4B1B685F4AA2FB03239A0CEC
:1028B00013465B0013443B6102E03B69013B3B6113
:1028C0003B69002BF9D1FB681B689B6803F480739C
:1028D000B3F5807F07D1FB681B689A68FB681B68AB
:1028E00022F480729A60FB681B689B6803F0010306
:1028F000012B40F08680FB681B6C23F4E06323F01F
:10290000010343F48072FB681A64FB681B685B6810
:1029100003F48063002B07D0FB681B6C23F4405347
:1029200043F48052FB681A64FB681B6C03F4805309
:10293000B3F5805F06D1FB685B6C23F00602FB6891
:102940005A6402E0FB6800225A64FB68002283F8A4
:102950003C20364B7B61FB689B6B354ADA63FB6836
:102960009B6B344A1A64FB689B6B334ADA64FB68DE
:102970001B686FF022021A60FB681B685A68FB68CC
:102980001B6842F080625A60FB681B689A68FB68AB
:102990001B6842F480729A60FB68986BFB681B6846
:1029A0004C331946BA687B6800F0F4FC7B695B68BD
:1029B00003F01F03002B0FD1FB681B689B6803F01B
:1029C0004053002B29D1FB681B689A68FB681B6881
:1029D00042F080429A6020E0FB681B68174A9342ED
:1029E0001BD1FB681B689B6803F04053002B14D17C
:1029F000FB681B689A68FB681B6842F080429A601B
:102A00000BE0FB681B6C43F01002FB681A64FB6868
:102A10005B6C43F00102FB685A64002318461837C8
:102A2000BD4680BD2400002083DE1B4300230140FF
:102A3000D92E0008932F0008AF2F00080020014076
:102A400080B483B000AF786000BF0C37BD465DF83E
:102A5000047B704780B483B000AF786000BF0C3750
:102A6000BD465DF8047B704780B483B000AF7860EA
:102A700000BF0C37BD465DF8047B704780B485B05D
:102A800000AF786039600023BB607B6893F83C300E
:102A9000012B01D1022313E17B68012283F83C2042
:102AA0003B681B68092B25D97B681B68D9683B6884
:102AB0001B689BB21A4613465B0013441E3B072259
:102AC00002FA03F3DA437B681B680A40DA607B682A
:102AD0001B68D9683B689A683B681B689BB21846BC
:102AE00003465B0003441E3B9A407B681B680A4315
:102AF000DA6022E07B681B6819693B681B689BB23F
:102B00001A4613465B001344072202FA03F3DA4322
:102B10007B681B680A401A617B681B6819693B68FF
:102B20009A683B681B689BB2184603465B000344E7
:102B30009A407B681B680A431A613B685B68062BF6
:102B400024D87B681B68596B3B685A6813469B0006
:102B50001344053B1F2202FA03F3DA437B681B6828
:102B60000A405A637B681B68596B3B681B689BB2C1
:102B700018463B685A6813469B001344053B00FA0D
:102B800003F27B681B680A435A634CE03B685B684E
:102B90000C2B24D87B681B68196B3B685A6813465A
:102BA0009B001344233B1F2202FA03F3DA437B68A2
:102BB0001B680A401A637B681B68196B3B681B68BB
:102BC0009BB218463B685A6813469B001344233B4C
:102BD00000FA03F27B681B680A431A6323E07B68F0
:102BE0001B68D96A3B685A6813469B001344413BF3
:102BF0001F2202FA03F3DA437B681B680A40DA6299
:102C00007B681B68D96A3B681B689BB218463B68A7
:102C10005A6813469B001344413B00FA03F27B6859
:102C20001B680A43DA62294BFB607B681B68284AF1
:102C300093420FD13B681B68122B0BD1FB685B687A
:102C400023F40002FB685A60FB685B6843F480026F
:102C5000FB685A607B681B681D4A93422BD13B6816
:102C60001B681C4A934203D03B681B68112B22D17E
:102C7000FB685B6823F48002FB685A60FB685B6852
:102C800043F40002FB685A603B681B68114A934298
:102C900011D1114B1B68114AA2FB03239A0C134656
:102CA0009B0013445B00BB6002E0BB68013BBB6060
:102CB000BB68002BF9D17B68002283F83C200023FD
:102CC00018461437BD465DF8047B70470023014069
:102CD00000200140120000102400002083DE1B436E
:102CE00080B485B000AF7860794BFB60FB685B68AF
:102CF00023F44032FB685A60FB685A687B685B6863
:102D00001A43FB685A607B681B685A687B681B68BB
:102D100022F480725A607B681B6859687B681B6963
:102D20001A027B681B680A435A607B681B685A68F2
:102D30007B681B6822F040725A607B681B68596888
:102D40007B689A687B681B680A435A607B681B68CB
:102D50009A687B681B6822F400629A607B681B6833
:102D600099687B68DA687B681B680A439A607B68AD
:102D70009B6A584A934222D07B681B689A687B689A
:102D80001B6822F070629A607B681B6899687B6898
:102D90009A6A7B681B680A439A607B681B689A681A
:102DA0007B681B6822F040529A607B681B689968B8
:102DB0007B68DA6A7B681B680A439A600FE07B686D
:102DC0001B689A687B681B6822F070629A607B6857
:102DD0001B689A687B681B6822F040529A607B6887
:102DE0001B689A687B681B6822F002029A607B6805
:102DF0001B6899687B681B7E5A007B681B680A43C6
:102E00009A607B6893F82030002B1BD07B681B688E
:102E10005A687B681B6842F400625A607B681B68D2
:102E20005A687B681B6822F460425A607B681B68A2
:102E300059687B685B6A013B5A037B681B680A43DD
:102E40005A6007E07B681B685A687B681B6822F43D
:102E500000625A607B681B68DA6A7B681B6822F430
:102E60007002DA627B681B68D96A7B68DB69013BA8
:102E70001A057B681B680A43DA627B681B689A68DC
:102E80007B681B6822F400729A607B681B689968F3
:102E90007B6893F830305A027B681B680A439A605B
:102EA0007B681B689A687B681B6822F480629A6062
:102EB0007B681B6899687B685B699A027B681B6802
:102EC0000A439A6000BF1437BD465DF8047B704723
:102ED000002301400100000F80B584B000AF78608E
:102EE0007B689B6BFB60FB681B6C03F05003002B43
:102EF0003CD1FB681B6C43F40072FB681A64FB68EE
:102F00001B689B6803F04053002B2BD1FB681B7E92
:102F1000002B27D1FB681B68DB6A03F47003002BCE
:102F200006D0FB681B689B6803F48063002B19D1F3
:102F3000FB681B685A68FB681B6822F020025A6015
:102F4000FB681B6C23F48072FB681A64FB681B6CC3
:102F500003F48053002B05D1FB681B6C43F0010286
:102F6000FB681A64F868FFF76BFD0EE0FB681B6CEA
:102F700003F01003002B03D0F868FFF775FD04E0A1
:102F8000FB689B6BDB6C7868984700BF1037BD46C9
:102F900080BD80B584B000AF78607B689B6BFB60C0
:102FA000F868FFF757FD00BF1037BD4680BD80B5FC
:102FB00084B000AF78607B689B6BFB60FB6840224D
:102FC0001A64FB685B6C43F00402FB685A64F8689F
:102FD000FFF74AFD00BF1037BD4680BD80B485B005
:102FE00000AF78607B6803F00703FB600C4BDB6885
:102FF000BB60BA684FF6FF031340BB60FB681A0260
:10300000BB68134343F0BF6343F40033BB60044A1F
:10301000BB68D36000BF1437BD465DF8047B7047C2
:1030200000ED00E080B400AF044BDB681B0A03F046
:1030300007031846BD465DF8047B704700ED00E0CD
:1030400080B483B000AF0346FB7197F90730002BC3
:103050000BDBFB7903F01F02074997F907305B0987
:10306000012000FA02F241F8232000BF0C37BD46D0
:103070005DF8047B704700BF00E100E080B483B0DE
:1030800000AF03463960FB7197F90730002B0ADB6C
:103090003B68DAB20C4997F907301201D2B20B44FF
:1030A00083F800230AE03B68DAB20849FB7903F0B1
:1030B0000F03043B1201D2B20B441A7600BF0C3747
:1030C000BD465DF8047B704700E100E000ED00E0E4
:1030D00080B489B000AFF860B9607A60FB6803F033
:1030E0000703FB61FB69C3F10703042B28BF04231B
:1030F000BB61FB690433062B02D9FB69033B00E08B
:1031000000237B614FF0FF32BB6902FA03F3DA431D
:10311000BB681A407B699A404FF0FF317B6901FA26
:1031200003F3D9437B680B40134318462437BD464D
:103130005DF8047B7047000080B582B000AF786016
:103140007B68013BB3F1807F01D301230FE00A4A82
:103150007B68013B53600F214FF0FF30FFF78EFF7C
:10316000054B00229A60044B07221A600023184680
:103170000837BD4680BD00BF10E000E080B582B0DA
:1031800000AF78607868FFF729FF00BF0837BD46B9
:1031900080BD80B586B000AF0346B9607A60FB732E
:1031A00000237B61FFF73EFF78617A68B968786930
:1031B000FFF78EFF024697F90F3011461846FFF7CA
:1031C0005DFF00BF1837BD4680BD80B582B000AF3F
:1031D0000346FB7197F907301846FFF731FF00BF30
:1031E0000837BD4680BD80B582B000AF7860786892
:1031F000FFF7A2FF034618460837BD4680BD80B5DD
:1032000082B000AF78607B68002B01D101230EE013
:103210007B685B79DBB2002B05D17B6800221A71D9
:103220007868FEF77FFB7B6801225A7100231846FD
:103230000837BD4680BD000080B586B000AF78601D
:1032400000237B61FFF798FA38617B68002B01D17E
:10325000012399E07B68022283F835207B680022F5
:1032600083F834207B681B681A687B681B6822F02F
:1032700001021A600FE0FFF77FFA02463B69D31A9A
:10328000052B08D97B6820225A657B68032283F8C6
:103290003520032378E07B681B681B6803F001037B
:1032A000002BE8D17B681B681B687B617A69384B0F
:1032B00013407B617B685A687B689B681A437B6814
:1032C000DB681A437B681B691A437B685B691A4396
:1032D0007B689B691A437B68DB691A437B681B6ABE
:1032E00013437A6913437B617B685B6A042B07D1C4
:1032F0007B68DA6A7B681B6B13437A6913437B61D3
:103300007B681B687A691A607B681B685B697B61F4
:103310007B6923F007037B617B685B6A7A691343EF
:103320007B617B685B6A042B17D17B689B6A7A6937
:1033300013437B617B68DB6A002B0ED0786800F05A
:103340000FFB0346002B08D07B6840225A657B6840
:10335000012283F83520012316E07B681B687A6917
:103360005A61786800F0C6FA0346FB607B68DB6D43
:103370003F229A40FB689A607B6800225A657B680E
:10338000012283F83520002318461837BD4680BD3A
:103390003F8010F080B586B000AFF860B9607A6009
:1033A0003B600023FB75FB689B6D3B61FB6893F8FA
:1033B0003430012B01D1022340E0FB68012283F865
:1033C0003420FB6893F83530DBB2012B2FD1FB683A
:1033D000022283F83520FB6800225A653B687A6830
:1033E000B968F86800F058FAFB68DB6D3F229A4034
:1033F0003B699A60FB681B681A68FB681B6842F0AF
:1034000016021A60FB681B6C002B07D0FB681B6858
:103410001A68FB681B6842F008021A60FB681B68A8
:103420001A68FB681B6842F001021A6005E0FB683D
:10343000002283F834200223FB75FB7D18461837E1
:10344000BD4680BD80B584B000AF78607B689B6D61
:10345000FB60FFF791F9B8607B6893F83530DBB219
:10346000022B08D07B6880225A657B68002283F893
:103470003420012352E07B681B681A687B681B6854
:1034800022F016021A607B681B685A697B681B6809
:1034900022F080025A617B681B6C002B03D17B6891
:1034A0009B6C002B07D07B681B681A687B681B68C5
:1034B00022F008021A607B681B681A687B681B6828
:1034C00022F001021A6013E0FFF756F90246BB68CA
:1034D000D31A052B0CD97B6820225A657B680322FE
:1034E00083F835207B68002283F83420032315E01D
:1034F0007B681B681B6803F00103002BE4D17B6829
:10350000DB6D3F229A40FB689A607B68012283F85A
:1035100035207B68002283F83420002318461037BA
:10352000BD4680BD80B483B000AF78607B6893F8FF
:103530003530DBB2022B04D07B6880225A65012330
:103540000CE07B68052283F835207B681B681A68CD
:103550007B681B6822F001021A60002318460C37B2
:10356000BD465DF8047B704780B586B000AF7860DB
:103570000023BB608E4B1B688E4AA2FB03239B0A71
:103580007B617B689B6D3B613B691B68FB607B6873
:10359000DB6D08229A40FB681340002B1AD07B6831
:1035A0001B681B6803F00403002B13D07B681B68A7
:1035B0001A687B681B6822F004021A607B68DB6D66
:1035C00008229A403B699A607B685B6D43F0010278
:1035D0007B685A657B68DB6D01229A40FB6813406B
:1035E000002B12D07B681B685B6903F08003002B03
:1035F0000BD07B68DB6D01229A403B699A607B6847
:103600005B6D43F002027B685A657B68DB6D0422C8
:103610009A40FB681340002B12D07B681B681B6824
:1036200003F00203002B0BD07B68DB6D04229A4071
:103630003B699A607B685B6D43F004027B685A6566
:103640007B68DB6D10229A40FB681340002B43D04F
:103650007B681B681B6803F00803002B3CD07B6869
:10366000DB6D10229A403B699A607B681B681B687F
:1036700003F48023002B18D07B681B681B6803F4BD
:103680000023002B08D17B681B6C002B24D07B68A7
:103690001B6C786898471FE07B689B6C002B1BD0E5
:1036A0007B689B6C7868984716E07B681B681B6892
:1036B00003F48073002B07D17B681B681A687B6852
:1036C0001B6822F008021A607B681B6C002B03D079
:1036D0007B681B6C786898477B68DB6D20229A407A
:1036E000FB681340002B00F08F807B681B681B6811
:1036F00003F01003002B00F087807B68DB6D202235
:103700009A403B699A607B6893F83530DBB2052BB1
:1037100036D17B681B681A687B681B6822F016022A
:103720001A607B681B685A697B681B6822F08002FC
:103730005A617B681B6C002B03D17B689B6C002B50
:1037400007D07B681B681A687B681B6822F0080238
:103750001A607B68DB6D3F229A403B699A607B6808
:10376000012283F835207B68002283F834207B68AF
:103770001B6D002B7ED07B681B6D7868984779E0C5
:103780007B681B681B6803F48023002B1DD07B68BB
:103790001B681B6803F40023002B0DD17B685B6C56
:1037A000002B31D07B685B6C786898472CE000BFB9
:1037B00024000020B5814E1B7B68DB6B002B23D0DF
:1037C0007B68DB6B786898471EE07B681B681B682A
:1037D00003F48073002B0FD17B681B681A687B6829
:1037E0001B6822F010021A607B68012283F83520E2
:1037F0007B68002283F834207B68DB6B002B03D0CE
:103800007B68DB6B786898477B685B6D002B32D0F8
:103810007B685B6D03F00103002B22D07B680522DF
:1038200083F835207B681B681A687B681B6822F068
:1038300001021A60BB680133BB607A699A4207D300
:103840007B681B681B6803F00103002BF2D100E0CA
:1038500000BF7B68012283F835207B68002283F853
:1038600034207B68DB6C002B05D07B68DB6C7868D0
:10387000984700E000BF1837BD4680BD80B483B0D4
:1038800000AF78607B6893F83530DBB218460C37B0
:10389000BD465DF8047B704780B485B000AFF8602A
:1038A000B9607A603B60FB681B681A68FB681B683C
:1038B00022F480221A60FB681B683A685A60FB6831
:1038C0009B68402B08D1FB681B687A689A60FB688C
:1038D0001B68BA68DA6007E0FB681B68BA689A6020
:1038E000FB681B687A68DA6000BF1437BD465DF874
:1038F000047B704780B485B000AF78607B681B683C
:10390000DBB2103B144AA2FB03231B09FB60134AE2
:10391000FB6813441B781A467B68DA65FB68032B47
:1039200009D97B681B6823F47F7323F003031A1DF6
:103930007B689A6507E07B681B6823F47F7323F03C
:1039400003037A6893657B689B6D18461437BD4600
:103950005DF8047B704700BFABAAAAAA9C9E000832
:1039600080B485B000AF78600023FB737B689B6AEE
:10397000BB607B689B69002B1FD1BB68032B56D8AB
:1039800001A252F823F000BF99390008AB390008B2
:10399000993900082F3A00087B68DB6A03F08073CE
:1039A000002B46D00123FB7343E07B68DB6AB3F155
:1039B000C07F40D10123FB733DE07B689B69B3F579
:1039C000005F21D1BB68032B37D801A252F823F046
:1039D000E1390008E7390008E1390008F939000841
:1039E0000123FB7330E07B68DB6A03F08073002BFC
:1039F00025D00123FB7322E07B68DB6AB3F1C07F33
:103A00001FD10123FB731CE0BB68022B03D9BB68E9
:103A1000032B03D018E00123FB7315E07B68DB6AFE
:103A200003F08073002B0ED00123FB730BE000BF6B
:103A30000AE000BF08E000BF06E000BF04E000BFEE
:103A400002E000BF00E000BFFB7B18461437BD4614
:103A50005DF8047B704700BF80B489B000AF786028
:103A6000396000237B6100233B610023BB6100239D
:103A7000FB6159E10122FB6902FA03F37B613B68B8
:103A80001B687A6913403B613A697B699A4240F04E
:103A900048813B685B6803F00303012B05D03B685A
:103AA0005B6803F00303022B30D17B689B68BB612A
:103AB000FB695B00032202FA03F3DB43BA6913409C
:103AC000BB613B68DA68FB695B0002FA03F3BA6921
:103AD0001343BB617B68BA699A607B685B68BB61B2
:103AE0000122FB6902FA03F3DB43BA691340BB61AD
:103AF0003B685B681B0903F00102FB6902FA03F3F0
:103B0000BA691343BB617B68BA695A603B685B68FA
:103B100003F00303032B17D07B68DB68BB61FB69F1
:103B20005B00032202FA03F3DB43BA691340BB6173
:103B30003B689A68FB695B0002FA03F3BA691343B6
:103B4000BB617B68BA69DA603B685B6803F00303BA
:103B5000022B23D1FB69DA087B68083253F8223044
:103B6000BB61FB6903F007039B000F2202FA03F31A
:103B7000DB43BA691340BB613B681A69FB6903F018
:103B800007039B0002FA03F3BA691343BB61FB69A5
:103B9000DA087B680832B96943F822107B681B6831
:103BA000BB61FB695B00032202FA03F3DB43BA69E2
:103BB0001340BB613B685B6803F00302FB695B0079
:103BC00002FA03F3BA691343BB617B68BA691A60EE
:103BD0003B685B6803F44033002B00F0A2800023B5
:103BE000FB60574B5B6C564A43F480435364544B21
:103BF0005B6C03F48043FB60FB68524AFB699B08E3
:103C0000023352F82330BB61FB6903F003039B00CE
:103C10000F2202FA03F3DB43BA691340BB617B68EE
:103C2000494A934219D07B68484A934213D07B6833
:103C3000474A93420DD07B68464A934207D07B683F
:103C4000454A934201D1042308E0072306E00323F9
:103C500004E0022302E0012300E00023FA6902F0FD
:103C6000030292009340BA691343BB613549FB6973
:103C70009B080233BA6941F82320384B9B68BB612B
:103C80003B69DB43BA691340BB613B685B6803F483
:103C90008013002B03D0BA693B691343BB612F4AE1
:103CA000BB6993602D4BDB68BB613B69DB43BA6941
:103CB0001340BB613B685B6803F40013002B03D027
:103CC000BA693B691343BB61244ABB69D360234B88
:103CD0005B68BB613B69DB43BA691340BB613B680E
:103CE0005B6803F40033002B03D0BA693B691343CC
:103CF000BB611A4ABB695360184B1B68BB613B69C7
:103D0000DB43BA691340BB613B685B6803F48033F3
:103D1000002B03D0BA693B691343BB610F4ABB69EF
:103D20001360FB690133FB61FB690F2B7FF6A2AEC9
:103D300000BF00BF2437BD465DF8047B704700BF5D
:103D400000380240003801400000024000040240F8
:103D500000080240000C024000100240003C0140FC
:103D600080B483B000AF78600B467B8013467B70D5
:103D70007B78002B03D07A887B689A6103E07B888C
:103D80001A047B689A6100BF0C37BD465DF8047B5E
:103D90007047000080B584B000AF78607B68002B6E
:103DA00001D101232BE17B6893F83D30DBB2002B7E
:103DB00006D17B68002283F83C207868FDF7C8FEB6
:103DC0007B68242283F83D207B681B681A687B6827
:103DD0001B6822F001021A607B681B681A687B6806
:103DE0001B6842F400421A607B681B681A687B6893
:103DF0001B6822F400421A6003F096F8F8607B68B2
:103E00005B68814A934207D8FB68804A934294BF1B
:103E100001230023DBB206E0FB687D4A934294BF96
:103E200001230023DBB2002B01D00123E7E0FB6874
:103E3000784AA2FB03239B0CBB607B681B685B6812
:103E400023F03F017B681B68BA680A435A607B68AD
:103E50001B681B6A23F03F017B685B686A4A9342D8
:103E600002D8BB68013309E0BB684FF4967202FBCD
:103E700003F3694AA2FB03239B0901337A681268A2
:103E80000B4313627B681B68DB6923F44F4222F00B
:103E9000FF027B685B685C498B4219D8FB68591E3E
:103EA0007B685B685B00B1FBF3F3591C40F6FC7365
:103EB0000B40002B0AD0FB68591E7B685B685B00D7
:103EC000B1FBF3F30133C3F30B0351E004234FE0E1
:103ED0007B689B68002B11D1FB68581E7B68596872
:103EE0000B465B000B44B0FBF3F30133C3F30B034E
:103EF000002B0CBF01230023DBB212E0FB68581E2D
:103F00007B6859680B469B000B4499000B44B0FB3F
:103F1000F3F30133C3F30B03002B0CBF0123002386
:103F2000DBB2002B01D0012322E07B689B68002BD1
:103F30000ED1FB68581E7B6859680B465B000B442A
:103F4000B0FBF3F30133C3F30B0343F400430FE07F
:103F5000FB68581E7B6859680B469B000B44990010
:103F60000B44B0FBF3F30133C3F30B0343F44043BF
:103F7000796809681343CB617B681B681B6823F071
:103F8000C0017B68DA697B681B6A1A437B681B681F
:103F90000A431A607B681B689B6823F4034323F081
:103FA000FF037A6811697A68D26811437A681268E7
:103FB0000B4393607B681B68DB6823F0FF017B6821
:103FC0005A697B689B691A437B681B680A43DA60FD
:103FD0007B681B681A687B681B6842F001021A60E4
:103FE0007B6800221A647B68202283F83D207B686E
:103FF00000221A637B68002283F83E2000231846C3
:104000001037BD4680BD00BFA08601007F841E0022
:10401000FF083D0083DE1B43D34D621080B588B09E
:1040200002AFF860084611461A4603467B810B46EC
:104030003B811346FB80FEF79FFB7861FB6893F89A
:104040003D30DBB2202B40F0D9807B6900931923EF
:1040500001226D49F86802F00DF90346002B01D0EA
:104060000223CCE0FB6893F83C30012B01D1022302
:10407000C5E0FB68012283F83C20FB681B681B68D5
:1040800003F00103012B07D0FB681B681A68FB686B
:104090001B6842F001021A60FB681B681A68FB6823
:1040A0001B6822F400621A60FB68212283F83D201D
:1040B000FB68402283F83E20FB6800221A64FB68FC
:1040C0003A6A5A62FB68BA8C5A85FB685B8D9AB271
:1040D000FB681A85FB684D4ADA62F8883A89798963
:1040E0007B690193BB6A00930346F86801F09CFE6C
:1040F0000346002B52D0012381E07A69B96AF8683F
:1041000002F08EF90346002B0DD0FB681B6C042BCC
:1041100007D1FB681B681A68FB681B6842F40072D1
:104120001A6001236BE0FB685B6A1A78FB681B6806
:104130001A61FB685B6A5A1CFB685A62FB681B8D3C
:10414000013B9AB2FB681A85FB685B8D9BB2013B11
:104150009AB2FB685A85FB681B685B6903F004032D
:10416000042B1BD1FB681B8D002B17D0FB685B6AEF
:104170001A78FB681B681A61FB685B6A5A1CFB684B
:104180005A62FB681B8D013B9AB2FB681A85FB687B
:104190005B8D9BB2013B9AB2FB685A85FB681B8D15
:1041A000002BAAD17A69B96AF86802F07AF9034655
:1041B000002B0DD0FB681B6C042B07D1FB681B6820
:1041C0001A68FB681B6842F400721A60012316E04B
:1041D000FB681B681A68FB681B6842F400721A606F
:1041E000FB68202283F83D20FB68002283F83E20F4
:1041F000FB68002283F83C20002300E002231846DD
:104200001837BD4680BD00BF020010000000FFFF50
:1042100080B58CB002AFF860084611461A460346D6
:104220007B810B463B811346FB80FEF7A5FA786243
:10423000FB6893F83D30DBB2202B40F008827B6AAC
:104240000093192301227B49F86802F013F8034612
:10425000002B01D00223FBE1FB6893F83C30012BDB
:1042600001D10223F4E1FB68012283F83C20FB68C2
:104270001B681B6803F00103012B07D0FB681B6858
:104280001A68FB681B6842F001021A60FB681B6831
:104290001A68FB681B6822F400621A60FB6822221D
:1042A00083F83D20FB68402283F83E20FB68002213
:1042B0001A64FB683A6B5A62FB68BA8E5A85FB68CF
:1042C0005B8D9AB2FB681A85FB685B4ADA62F888F4
:1042D0003A8979897B6A0193BB6B00930346F8683E
:1042E00001F038FE0346002B01D00123B0E1FB684A
:1042F0001B8D002B13D100233B62FB681B685B699D
:104300003B62FB681B689B693B623B6AFB681B68FE
:104310001A68FB681B6842F400721A6084E1FB684B
:104320001B8D012B1BD1FB681B681A68FB681B687F
:1043300022F480621A600023FB61FB681B685B69E2
:10434000FB61FB681B689B69FB61FB69FB681B6881
:104350001A68FB681B6842F400721A6064E1FB682B
:104360001B8D022B1BD1FB681B681A68FB681B683E
:1043700022F480621A60FB681B681A68FB681B687D
:1043800042F400621A600023BB61FB681B685B6932
:10439000BB61FB681B689B69BB61BB6944E100238F
:1043A0007B61FB681B685B697B61FB681B689B69C1
:1043B0007B617B6938E1FB681B8D032B00F2F18088
:1043C000FB681B8D012B23D17A6AB96BF86802F068
:1043D000DBF80346002B01D0012339E1FB681B68A1
:1043E0001A69FB685B6AD2B21A70FB685B6A5A1C76
:1043F000FB685A62FB681B8D013B9AB2FB681A8509
:10440000FB685B8D9BB2013B9AB2FB685A850BE15E
:10441000FB681B8D022B4ED17B6A0093BB6B002285
:104420000649F86801F026FF0346002B08D0012357
:104430000EE100BF020010000000FFFF04000100B9
:10444000FB681B681A68FB681B6842F400721A60FC
:10445000FB681B681A69FB685B6AD2B21A70FB685A
:104460005B6A5A1CFB685A62FB681B8D013B9AB25F
:10447000FB681A85FB685B8D9BB2013B9AB2FB68B7
:104480005A85FB681B681A69FB685B6AD2B21A70AE
:10449000FB685B6A5A1CFB685A62FB681B8D013B18
:1044A0009AB2FB681A85FB685B8D9BB2013B9AB29E
:1044B000FB685A85B8E07B6A0093BB6B00226649B3
:1044C000F86801F0D7FE0346002B01D00123BFE0BE
:1044D000FB681B681A68FB681B6822F480621A601C
:1044E000FB681B681A69FB685B6AD2B21A70FB68CA
:1044F0005B6A5A1CFB685A62FB681B8D013B9AB2CF
:10450000FB681A85FB685B8D9BB2013B9AB2FB6826
:104510005A857B6A0093BB6B00224F49F86801F013
:10452000A9FE0346002B01D0012391E0FB681B6824
:104530001A68FB681B6842F400721A60FB681B680B
:104540001A69FB685B6AD2B21A70FB685B6A5A1C14
:10455000FB685A62FB681B8D013B9AB2FB681A85A7
:10456000FB685B8D9BB2013B9AB2FB685A85FB6886
:104570001B681A69FB685B6AD2B21A70FB685B6AD7
:104580005A1CFB685A62FB681B8D013B9AB2FB68A0
:104590001A85FB685B8D9BB2013B9AB2FB685A851A
:1045A00042E07A6AB96BF86801F0EEFF0346002B2F
:1045B00001D001234CE0FB681B681A69FB685B6A49
:1045C000D2B21A70FB685B6A5A1CFB685A62FB68BD
:1045D0001B8D013B9AB2FB681A85FB685B8D9BB211
:1045E000013B9AB2FB685A85FB681B685B6903F064
:1045F0000403042B18D1FB681B681A69FB685B6A0B
:10460000D2B21A70FB685B6A5A1CFB685A62FB687C
:104610001B8D013B9AB2FB681A85FB685B8D9BB2D0
:10462000013B9AB2FB685A85FB681B8D002B7FF417
:10463000C2AEFB68202283F83D20FB68002283F88D
:104640003E20FB68002283F83C20002300E0022388
:1046500018462837BD4680BD0400010080B588B0EB
:1046600000AF78600023BB617B681B685B687B617F
:104670007B68DB6A3B617B6893F83E30FB737B6849
:1046800093F83D30BB73FB7B102B03D0FB7B402B9F
:1046900040F0C1807B681B689B69BB617B681B68BD
:1046A0005B69FB61FB6903F00103002B0DD13B69E2
:1046B000B3F52A0F03D03B69B3F12A4F01D101238F
:1046C00000E00023012B00F03281FB6903F00103BD
:1046D000002B0CD07B695B0A03F00103002B06D092
:1046E000786801F0D6FF786800F083FD92E0FB69FE
:1046F000DB0803F00103002B09D07B695B0A03F0A0
:104700000103002B03D0786800F0F9FD82E0FB691B
:104710005B0803F00103002B09D07B695B0A03F0FF
:104720000103002B03D0786800F013FE72E0BB6930
:104730009B0803F00103002B3BD07B681B685B6880
:1047400003F40063B3F5006F00F0F380FB69DB094D
:1047500003F00103002B0FD07B699B0A03F00103D8
:10476000002B09D0FB699B0803F00103002B03D148
:10477000786800F0F3F94DE0FB699B0803F0010352
:10478000002B00F0D6807B695B0A03F00103002B4D
:1047900000F0CF80BB7B212B03D1786800F07AFA40
:1047A000C7E0FB7B402B40F0C480786800F0E8FA5B
:1047B000BFE07B681B685B6803F40063B3F5006FC0
:1047C00000F0B780FB699B0903F00103002B0FD0B9
:1047D0007B699B0A03F00103002B09D0FB699B084E
:1047E00003F00103002B03D1786800F05DFB11E0BA
:1047F000FB699B0803F00103002B00F09A807B69A2
:104800005B0A03F00103002B00F09380786800F04E
:1048100006FC8EE08DE07B681B6C002B04D07B686F
:104820001B685B69FB6107E07B681B689B69BB6178
:104830007B681B685B69FB61FB695B0803F0010334
:10484000002B12D07B695B0A03F00103002B0CD014
:104850007B681B6C002B03D07B681B689B69BB616A
:10486000B969786800F0C4FF66E0FB691B0903F0D2
:104870000103002B09D07B695B0A03F00103002BC5
:1048800003D0786800F0FEFF56E0BB7B212B02D0FE
:10489000BB7B292B25D1FB69DB0903F00103002B2E
:1048A0000FD07B699B0A03F00103002B09D0FB6941
:1048B0009B0803F00103002B03D1786800F0DAFEB7
:1048C00039E0FB699B0803F00103002B33D07B69BF
:1048D0005B0A03F00103002B2DD0786800F007FF7E
:1048E00029E0FB699B0903F00103002B0FD07B69D2
:1048F0009B0A03F00103002B09D0FB699B0803F01E
:104900000103002B03D1786800F012FF14E0FB696B
:104910009B0803F00103002B0ED07B695B0A03F0B8
:104920000103002B08D0786800F040FF04E000BFCE
:1049300002E000BF00E000BF2037BD4680BD80B56B
:104940008AB000AF78607B681B685B693B627B68FC
:104950001B685B68FB6100237B627B6893F83E30D9
:10496000FB763B6A1B0A03F00103002B0ED0FB69A8
:104970001B0A03F00103002B08D07B6A43F00103FC
:104980007B627B681B686FF480725A613B6A5B0ACA
:1049900003F00103002B0ED0FB691B0A03F0010397
:1049A000002B08D07B6A43F002037B627B681B68A4
:1049B0006FF400725A613B6A9B0A03F00103002BFB
:1049C0003FD0FB691B0A03F00103002B39D0FB7EAB
:1049D000BB767B685B8D9BB27B617B6893F83D30D7
:1049E000FB747B681B6BFB60BB7E202B12D17B6949
:1049F000002B0FD1FB7C212B08D0FB7C292B05D071
:104A0000FB7C282B06D1FB68212B03D1786801F0B1
:104A100069F816E07B681B686FF480625A617B6AF4
:104A200043F004037B62FB7E102B02D0FB7E402B05
:104A300007D17B681B681A687B681B6842F40072A8
:104A40001A603B6ADB0A03F00103002B0ED0FB69FE
:104A50001B0A03F00103002B08D07B6A43F0080314
:104A60007B627B681B686FF400625A617B6A002B73
:104A700008D07B681A6C7B6A1A437B681A64786872
:104A800001F0A0F800BF2837BD4680BD80B483B0D8
:104A900000AF786000BF0C37BD465DF8047B7047FF
:104AA00080B483B000AF786000BF0C37BD465DF8BE
:104AB000047B704780B483B000AF786000BF0C37D0
:104AC000BD465DF8047B704780B483B000AF78606A
:104AD00000BF0C37BD465DF8047B704780B483B0DF
:104AE00000AF78600B46FB7013463B8000BF0C376D
:104AF000BD465DF8047B704780B483B000AF78603A
:104B000000BF0C37BD465DF8047B704780B483B0AE
:104B100000AF786000BF0C37BD465DF8047B70477E
:104B200080B483B000AF786000BF0C37BD465DF83D
:104B3000047B704780B483B000AF786000BF0C374F
:104B4000BD465DF8047B704780B483B000AF7860E9
:104B500000BF0C37BD465DF8047B704780B584B05C
:104B600000AF78607B6893F83D30FB737B6893F807
:104B70003E30BB737B68DB6ABB607B681B8D002BA0
:104B800050D1FB7B212B4DD1BB68082B1DD0BB68BE
:104B9000202B1AD0BB6813F5803F16D07B681B68AA
:104BA0005A687B681B6822F4E0625A607B681122B5
:104BB0001A637B68002283F83E207B68202283F8FA
:104BC0003D207868FFF762FF60E07B681B685A68E9
:104BD0007B681B6822F4E0625A607B681B681A6875
:104BE0007B681B6842F400721A607B6800221A63BB
:104BF0007B68202283F83D207B6893F83E30DBB24F
:104C0000402B07D17B68002283F83E207868FFF7AD
:104C10007DFF3BE07B68002283F83E207868FFF749
:104C200035FF33E0FB7B212B05D0BB7B402B2DD107
:104C3000FB7B222B2AD17B685B8D9BB2002B08D19A
:104C40007B681B685A687B681B6822F480625A6024
:104C50001CE07B6893F83E30DBB2402B03D17868D0
:104C600000F08EF812E07B685B6A1A787B681B683C
:104C70001A617B685B6A5A1C7B685A627B685B8D31
:104C80009BB2013B9AB27B685A85FFE700BF1037A1
:104C9000BD4680BD80B584B000AF78607B68DB6ABC
:104CA000FB607B6893F83D30DBB2212B64D17B68DD
:104CB0005B8D9BB2002B12D07B685B6A1A787B6895
:104CC0001B681A617B685B6A5A1C7B685A627B6846
:104CD0005B8D9BB2013B9AB27B685A854CE0FB68C6
:104CE000082B1DD0FB68202B1AD0FB6813F5803FE2
:104CF00016D07B681B685A687B681B6822F4E062E8
:104D00005A607B6811221A637B68002283F83E2078
:104D10007B68202283F83D207868FFF7B7FE2BE000
:104D20007B681B685A687B681B6822F4E0625A60E3
:104D30007B681B681A687B681B6842F400721A6003
:104D40007B6800221A637B68202283F83D207B6801
:104D500093F83E30DBB2402B07D17B68002283F80A
:104D60003E207868FFF7D2FE06E07B68002283F8D9
:104D70003E207868FFF78AFE00BF1037BD4680BD31
:104D800080B584B000AF78607B6893F83D30FB73EA
:104D90007B681B6D002B1DD17B68DB6C012B0BD15D
:104DA0007B689B6CDAB27B681B681A617B681B6D41
:104DB0009A1C7B681A6573E07B689B6C9BB21B1224
:104DC000DAB27B681B681A617B681B6D5A1C7B68B2
:104DD0001A6565E07B681B6D012B0BD17B689B6CB2
:104DE000DAB27B681B681A617B681B6D5A1C7B6892
:104DF0001A6555E07B681B6D022B51D1FB7B222B82
:104E00000DD17B681B681A687B681B6842F480724E
:104E10001A607B681B6D5A1C7B681A6540E07B68D2
:104E20005B8D9BB2002B15D0FB7B212B12D17B68B5
:104E30005B6A1A787B681B681A617B685B6A5A1C1C
:104E40007B685A627B685B8D9BB2013B9AB27B6840
:104E50005A8525E07B685B8D9BB2002B20D1FB7BC4
:104E6000212B1DD17B681B685A687B681B6822F464
:104E7000E0625A607B681B681A687B681B6842F4B2
:104E800000721A607B6800221A637B68202283F814
:104E90003D207B68002283F83E207868FFF736FECD
:104EA00000BF1037BD4680BD80B584B000AF7860CC
:104EB0007B6893F83D30DBB2222B40F0AC807B68FE
:104EC0005B8D9BB2FB60FB68032B21D97B681B6861
:104ED0001A697B685B6AD2B21A707B685B6A5A1C7B
:104EE0007B685A627B685B8D9BB2013B9AB27B68A0
:104EF0005A857B685B8D9BB2032B40F08C807B686E
:104F00001B685A687B681B6822F480625A6082E0E2
:104F10007B68DB6A022B75D0FB68012B02D0FB6833
:104F2000002B6FD1786801F0FDFA0346002B42D1C7
:104F30007B681B681A687B681B6822F480621A60B1
:104F40007B681B685A687B681B6822F4E0625A60C1
:104F50007B681B681A697B685B6AD2B21A707B68CF
:104F60005B6A5A1C7B685A627B685B8D9BB2013B13
:104F70009AB27B685A857B68202283F83D207B6843
:104F800093F83E30DBB2402B0AD17B68002283F8D5
:104F90003E207B6800221A637868FFF7C1FD3AE083
:104FA0007B68002283F83E207B6812221A637868AF
:104FB000FFF776FD2FE07B681B685A687B681B68EB
:104FC00022F4E0625A607B681B681A697B685B6A3E
:104FD000D2B21A707B685B6A5A1C7B685A627B6823
:104FE0005B8D9BB2013B9AB27B685A857B6820221D
:104FF00083F83D207B68002283F83E207868FFF725
:1050000099FD08E07B681B685A687B681B6822F47E
:1050100080625A60FFE700BF1037BD4680BD80B593
:1050200084B000AF78607B68DB6AFB607B685B8D77
:105030009BB2042B1BD17B681B685A687B681B687A
:1050400022F480625A607B681B681A697B685B6A1D
:10505000D2B21A707B685B6A5A1C7B685A627B68A2
:105060005B8D9BB2013B9AB27B685A85BDE07B6841
:105070005B8D9BB2032B29D17B681B685A687B68C8
:105080001B6822F480625A60FB68042B0AD0FB681C
:10509000022B07D07B681B681A687B681B6822F4A8
:1050A00080621A607B681B681A697B685B6AD2B28F
:1050B0001A707B685B6A5A1C7B685A627B685B8DDE
:1050C0009BB2013B9AB27B685A858EE07B685B8D10
:1050D0009BB2022B76D1FB68012B02D0FB68102B10
:1050E00008D17B681B681A687B681B6822F48062A1
:1050F0001A6019E0FB68042B02D0FB68022B08D170
:105100007B681B681A687B681B6842F480621A60BF
:105110000AE0FB68102B07D07B681B681A687B6865
:105120001B6842F400721A607B681B681A697B680E
:105130005B6AD2B21A707B685B6A5A1C7B685A62DF
:105140007B685B8D9BB2013B9AB27B685A857B681A
:105150001B681A697B685B6AD2B21A707B685B6AEB
:105160005A1C7B685A627B685B8D9BB2013B9AB28A
:105170007B685A857B681B685A687B681B6822F4C9
:1051800040725A607B68202283F83D207B6893F848
:105190003E30DBB2402B0AD17B68002283F83E20F0
:1051A0007B6800221A637868FFF7BAFC1DE07B6811
:1051B000002283F83E207B6812221A637868FFF78A
:1051C0006FFC12E07B681B681A697B685B6AD2B26D
:1051D0001A707B685B6A5A1C7B685A627B685B8DBD
:1051E0009BB2013B9AB27B685A8500BF1037BD461F
:1051F00080BD80B483B000AF78607B6893F83E30A8
:10520000DBB2402B17D17B681B6D002B09D17B686B
:105210005B6CDBB21A467B681B6802F0FE021A6107
:1052200067E07B685B6CDBB243F00103DAB27B685A
:105230001B681A615DE07B681B69B3F5804F33D151
:105240007B6893F83D30DBB2212B09D17B685B6C26
:10525000DBB21A467B681B6802F0FE021A6108E0A6
:105260007B685B6CDBB243F00103DAB27B681B68DE
:105270001A617B685B6B002B04D07B685B6BDB6B1C
:10528000002B08D17B689B6B002B32D07B689B6B1B
:10529000DB6B002B2DD07B681B685A687B681B6812
:1052A00042F400625A6024E07B681B6D002B0ED133
:1052B0007B685B6C9BB2DB11DBB203F00603DBB2F5
:1052C00063F00F03DAB27B681B681A6111E07B6838
:1052D0001B6D012B0DD17B685B6C9BB2DB11DBB2CC
:1052E00003F00603DBB263F00E03DAB27B681B68DF
:1052F0001A6100BF0C37BD465DF8047B704780B46F
:1053000083B000AF78607B685B6CDAB27B681B6847
:105310001A617B685B6B002B04D07B685B6BDB6B7B
:10532000002B08D17B689B6B002B0CD07B689B6BA0
:10533000DB6B002B07D07B681B685A687B681B6897
:1053400042F400625A6000BF0C37BD465DF8047B32
:10535000704780B491B000AF78607B6893F83E30BE
:1053600087F83F307B68DB6ABB637B681B6B7B63C2
:105370007B6893F83D30DBB2222B40F069817B687B
:105380001B6D002B0FD197F83F30402B0BD1002322
:105390003B637B681B685B693B637B681B689B693D
:1053A0003B633B6B60E17B681B6D002B1DD17B6811
:1053B0001B69B3F5404F18D10023FB627B681B6863
:1053C0005B69FB627B681B689B69FB62FB6A7B68AD
:1053D0001B681A687B681B6842F480721A607B68DD
:1053E0001B6D5A1C7B681A653EE17B685B8D9BB226
:1053F000002B13D10023BB627B681B685B69BB6217
:105400007B681B689B69BB62BB6A7B681B681A6808
:105410007B681B6842F400721A6015E17B685B8D43
:105420009BB2012B40F08A80BB6B13F5803F37D1D4
:105430007B681B681A687B681B6822F480621A60AC
:105440007B681B685B6803F40063B3F5006F13D1DE
:105450007B681B681A687B681B6822F480621A608C
:1054600000237B627B681B685B697B627B681B68CF
:105470009B697B627B6AE7E000233B627B681B6879
:105480005B693B627B681B689B693B623B6A7B682C
:105490001B681A687B681B6842F400721A60D3E0CC
:1054A000BB6B082B2ED0BB6B202B2BD07B6B122B16
:1054B00002D1BB6B012B25D1BB6B042B0ED0BB6B78
:1054C000022B0BD0BB6B102B08D07B681B681A68B3
:1054D0007B681B6822F480621A6007E07B681B68A7
:1054E0001A687B681B6842F480621A600023FB61C3
:1054F0007B681B685B69FB617B681B689B69FB6160
:10550000FB69A1E07B681B681A687B681B6822F452
:1055100080621A600023BB617B681B685B69BB61AA
:105520007B681B689B69BB61BB697B681B681A68E9
:105530007B681B6842F400721A6085E07B685B8DB3
:105540009BB2022B4DD1BB6B042B16D0BB6B022B35
:1055500013D0BB6B102B10D07B681B681A687B685C
:105560001B6822F480621A607B681B681A687B687B
:105570001B6842F400621A6007E07B681B681A68C7
:105580007B681B6842F480621A607B681B685B68FA
:1055900003F40063B3F5006F17D1BB6B13F5803FC5
:1055A0000BD0BB6B012B08D0BB6B082B05D0BB6BA2
:1055B000102B02D0BB6B202B07D17B681B685A686D
:1055C0007B681B6842F480525A6000237B617B68D1
:1055D0001B685B697B617B681B689B697B617B697E
:1055E00032E07B681B681A687B681B6842F4806243
:1055F0001A607B681B685B6803F40063B3F5006F97
:1056000017D1BB6B13F5803F0BD0BB6B012B08D0C0
:10561000BB6B082B05D0BB6B102B02D0BB6B202BB8
:1056200007D17B681B685A687B681B6842F480520C
:105630005A6000233B617B681B685B693B617B6848
:105640001B689B693B613B697B6800221A650BE024
:105650000023FB607B681B685B69FB607B681B68E1
:105660009B69FB60FB68FFE700BF4437BD465DF800
:10567000047B704780B584B000AF78607B6893F896
:105680003D30FB737B685B8D9BB2002B2BD07B681E
:105690005B6A1A787B681B681A617B685B6A5A1CB4
:1056A0007B685A627B685B8D9BB2013B9AB27B68D8
:1056B0005A857B685B8D9BB2002B14D1FB7B292B19
:1056C00011D17B681B685A687B681B6822F4806272
:1056D0005A607B6821221A637B68282283F83D2068
:1056E0007868FFF7E7F900BF1037BD4680BD80B48A
:1056F00083B000AF78607B685B8D9BB2002B11D0CC
:105700007B685B6A1A787B681B681A617B685B6AD6
:105710005A1C7B685A627B685B8D9BB2013B9AB2D4
:105720007B685A8500BF0C37BD465DF8047B704727
:1057300080B584B000AF78607B6893F83D30FB7330
:105740007B685B8D9BB2002B2CD07B681B681A6931
:105750007B685B6AD2B21A707B685B6A5A1C7B6892
:105760005A627B685B8D9BB2013B9AB27B685A851B
:105770007B685B8D9BB2002B14D1FB7B2A2B11D154
:105780007B681B685A687B681B6822F480625A60D9
:105790007B6822221A637B68282283F83D20786880
:1057A000FFF792F900BF1037BD4680BD80B483B0CB
:1057B00000AF78607B685B8D9BB2002B12D07B685A
:1057C0001B681A697B685B6AD2B21A707B685B6A75
:1057D0005A1C7B685A627B685B8D9BB2013B9AB214
:1057E0007B685A8500BF0C37BD465DF8047B704767
:1057F00080B584B000AF786039600023FB737B68AC
:1058000093F83D30DBB203F02803282B27D17B68C7
:105810001B685A687B681B6822F480625A603B6888
:105820009B0803F00103002B01D10123FB733B68AC
:10583000DB0903F00103002B03D17B68DB68BB812C
:1058400002E07B689B69BB817B68002283F83C2077
:10585000BA89FB7B19467868FFF740F90EE0002310
:10586000BB607B681B685B69BB607B681B689B696E
:10587000BB60BB687B68002283F83C2000BF103708
:10588000BD4680BD80B584B000AF78607B6893F87A
:105890003D30FB737B681B685A687B681B6822F489
:1058A000E0625A600023BB607B681B685B69BB6079
:1058B0007B681B681A687B681B6842F001021A60EB
:1058C000BB687B681B681A687B681B6822F480626F
:1058D0001A607B681B685B6803F40063B3F5006FB4
:1058E00072D1FB7B222B02D0FB7B2A2B35D17B682C
:1058F0009B6B1B685B689AB27B685A857B685B8D83
:105900009BB2002B05D07B681B6C43F004027B68C4
:105910001A647B681B685A687B681B6822F4006203
:105920005A607B689B6B1846FDF7A8FF0346012B66
:1059300049D07B689B6B694A1A657B689B6B1846EC
:10594000FDF7F0FD0346002B3DD07B689B6B1B6D84
:105950007A68926B1046984735E07B685B6B1B68F2
:105960005B689AB27B685A857B685B8D9BB2002B23
:1059700005D07B681B6C43F004027B681A647B686B
:105980001B685A687B681B6822F400625A607B6857
:105990005B6B1846FDF772FF0346012B14D07B6842
:1059A0005B6B4E4A1A657B685B6B1846FDF7BAFD68
:1059B0000346002B08D07B685B6B1B6D7A68526BCB
:1059C0001046984700E000BF7B685B8D9BB2002BC0
:1059D0003ED07B681B685B6903F00403042B12D183
:1059E0007B681B681A697B685B6AD2B21A707B6835
:1059F0005B6A5A1C7B685A627B685B8D9BB2013B79
:105A00009AB27B685A857B681B685B6903F0400328
:105A1000402B12D17B681B681A697B685B6AD2B223
:105A20001A707B685B6A5A1C7B685A627B685B8D64
:105A30009BB2013B9AB27B685A857B685B8D9BB2B7
:105A4000002B05D07B681B6C43F004027B681A6452
:105A50007B681B6C002B03D0786800F0B3F839E04A
:105A6000FB7B2A2B09D17B6800221A637B682822E2
:105A700083F83D207868FFF727F87B6893F83D307E
:105A8000DBB2282B11D17B68154ADA627B680022D1
:105A90001A637B68202283F83D207B68002283F80C
:105AA0003E207868FFF728F814E07B681B6B222BF8
:105AB00002D0FB7B222B0DD17B6800221A637B680E
:105AC000202283F83D207B68002283F83E207868FE
:105AD000FEF7FAFF00BF1037BD4680BD2561000804
